{
  "contractName": "ThresholdSig",
  "abi": [
    {
      "inputs": [
        {
          "internalType": "address",
          "name": "_signer",
          "type": "address"
        }
      ],
      "stateMutability": "nonpayable",
      "type": "constructor"
    },
    {
      "anonymous": false,
      "inputs": [
        {
          "indexed": true,
          "internalType": "address",
          "name": "sender",
          "type": "address"
        },
        {
          "indexed": false,
          "internalType": "uint256",
          "name": "amount",
          "type": "uint256"
        },
        {
          "indexed": false,
          "internalType": "uint256",
          "name": "balance",
          "type": "uint256"
        }
      ],
      "name": "Deposit",
      "type": "event"
    },
    {
      "anonymous": false,
      "inputs": [
        {
          "indexed": true,
          "internalType": "address",
          "name": "to",
          "type": "address"
        },
        {
          "indexed": false,
          "internalType": "uint256",
          "name": "amount",
          "type": "uint256"
        },
        {
          "indexed": false,
          "internalType": "bytes32",
          "name": "messageHash",
          "type": "bytes32"
        }
      ],
      "name": "Transfer",
      "type": "event"
    },
    {
      "inputs": [],
      "name": "signer",
      "outputs": [
        {
          "internalType": "address",
          "name": "",
          "type": "address"
        }
      ],
      "stateMutability": "view",
      "type": "function",
      "constant": true
    },
    {
      "stateMutability": "payable",
      "type": "receive",
      "payable": true
    },
    {
      "inputs": [
        {
          "internalType": "bytes32",
          "name": "hash",
          "type": "bytes32"
        },
        {
          "internalType": "uint8",
          "name": "v",
          "type": "uint8"
        },
        {
          "internalType": "bytes32",
          "name": "r",
          "type": "bytes32"
        },
        {
          "internalType": "bytes32",
          "name": "s",
          "type": "bytes32"
        }
      ],
      "name": "verifySignature",
      "outputs": [
        {
          "internalType": "bool",
          "name": "",
          "type": "bool"
        }
      ],
      "stateMutability": "view",
      "type": "function",
      "constant": true
    },
    {
      "inputs": [
        {
          "internalType": "address payable",
          "name": "to",
          "type": "address"
        },
        {
          "internalType": "uint256",
          "name": "amount",
          "type": "uint256"
        },
        {
          "internalType": "bytes32",
          "name": "messageHash",
          "type": "bytes32"
        },
        {
          "internalType": "uint8",
          "name": "v",
          "type": "uint8"
        },
        {
          "internalType": "bytes32",
          "name": "r",
          "type": "bytes32"
        },
        {
          "internalType": "bytes32",
          "name": "s",
          "type": "bytes32"
        }
      ],
      "name": "transfer",
      "outputs": [],
      "stateMutability": "nonpayable",
      "type": "function"
    },
    {
      "inputs": [],
      "name": "getBalance",
      "outputs": [
        {
          "internalType": "uint256",
          "name": "",
          "type": "uint256"
        }
      ],
      "stateMutability": "view",
      "type": "function",
      "constant": true
    }
  ],
  "bytecode": "0x608060405234801561001057600080fd5b50604051610832380380610832833981810160405281019061003291906100db565b806000806101000a81548173ffffffffffffffffffffffffffffffffffffffff021916908373ffffffffffffffffffffffffffffffffffffffff16021790555050610108565b600080fd5b600073ffffffffffffffffffffffffffffffffffffffff82169050919050565b60006100a88261007d565b9050919050565b6100b88161009d565b81146100c357600080fd5b50565b6000815190506100d5816100af565b92915050565b6000602082840312156100f1576100f0610078565b5b60006100ff848285016100c6565b91505092915050565b61071b806101176000396000f3fe6080604052600436106100435760003560e01c806312065fe01461009f578063238ac933146100ca5780637cd4ff72146100f5578063969578691461011e5761009a565b3661009a573373ffffffffffffffffffffffffffffffffffffffff167f90890809c654f11d6e72a28fa60149770a0d11ec6c92319d6ceb2bb0a4ea1a153447604051610090929190610334565b60405180910390a2005b600080fd5b3480156100ab57600080fd5b506100b461015b565b6040516100c1919061035d565b60405180910390f35b3480156100d657600080fd5b506100df610163565b6040516100ec91906103b9565b60405180910390f35b34801561010157600080fd5b5061011c600480360381019061011791906104b2565b610187565b005b34801561012a57600080fd5b506101456004803603810190610140919061053f565b610271565b60405161015291906105c1565b60405180910390f35b600047905090565b60008054906101000a900473ffffffffffffffffffffffffffffffffffffffff1681565b61019384848484610271565b6101d2576040517f08c379a00000000000000000000000000000000000000000000000000000000081526004016101c990610639565b60405180910390fd5b8573ffffffffffffffffffffffffffffffffffffffff166108fc869081150290604051600060405180830381858888f19350505050158015610218573d6000803e3d6000fd5b508573ffffffffffffffffffffffffffffffffffffffff167fa8789495346cde52e9ea2b151de2ddc540f804f6751dbcbb9ba3c654ee178a888686604051610261929190610668565b60405180910390a2505050505050565b60008060009054906101000a900473ffffffffffffffffffffffffffffffffffffffff1673ffffffffffffffffffffffffffffffffffffffff16600186868686604051600081526020016040526040516102ce94939291906106a0565b6020604051602081039080840390855afa1580156102f0573d6000803e3d6000fd5b5050506020604051035173ffffffffffffffffffffffffffffffffffffffff16149050949350505050565b6000819050919050565b61032e8161031b565b82525050565b60006040820190506103496000830185610325565b6103566020830184610325565b9392505050565b60006020820190506103726000830184610325565b92915050565b600073ffffffffffffffffffffffffffffffffffffffff82169050919050565b60006103a382610378565b9050919050565b6103b381610398565b82525050565b60006020820190506103ce60008301846103aa565b92915050565b600080fd5b60006103e482610378565b9050919050565b6103f4816103d9565b81146103ff57600080fd5b50565b600081359050610411816103eb565b92915050565b6104208161031b565b811461042b57600080fd5b50565b60008135905061043d81610417565b92915050565b6000819050919050565b61045681610443565b811461046157600080fd5b50565b6000813590506104738161044d565b92915050565b600060ff82169050919050565b61048f81610479565b811461049a57600080fd5b50565b6000813590506104ac81610486565b92915050565b60008060008060008060c087890312156104cf576104ce6103d4565b5b60006104dd89828a01610402565b96505060206104ee89828a0161042e565b95505060406104ff89828a01610464565b945050606061051089828a0161049d565b935050608061052189828a01610464565b92505060a061053289828a01610464565b9150509295509295509295565b60008060008060808587031215610559576105586103d4565b5b600061056787828801610464565b94505060206105788782880161049d565b935050604061058987828801610464565b925050606061059a87828801610464565b91505092959194509250565b60008115159050919050565b6105bb816105a6565b82525050565b60006020820190506105d660008301846105b2565b92915050565b600082825260208201905092915050565b7f496e76616c6964207369676e6174757265000000000000000000000000000000600082015250565b60006106236011836105dc565b915061062e826105ed565b602082019050919050565b6000602082019050818103600083015261065281610616565b9050919050565b61066281610443565b82525050565b600060408201905061067d6000830185610325565b61068a6020830184610659565b9392505050565b61069a81610479565b82525050565b60006080820190506106b56000830187610659565b6106c26020830186610691565b6106cf6040830185610659565b6106dc6060830184610659565b9594505050505056fea264697066735822122052e90ae36fde1a18114217e25c59479d188bb484aca22730ccc18b14f2411cb164736f6c63430008080033",
  "immutableReferences": {},
  "source": "// SPDX-License-Identifier: MIT\r\npragma solidity ^0.8.8;\r\n\r\ncontract ThresholdSig {\r\n    address public signer;\r\n\r\n    event Deposit(address indexed sender, uint256 amount, uint256 balance);\r\n    event Transfer(address indexed to, uint256 amount, bytes32 messageHash);\r\n\r\n    constructor(address _signer) {\r\n        signer = _signer;\r\n    }\r\n\r\n    function verifySignature(bytes32 hash, uint8 v, bytes32 r, bytes32 s) public view returns (bool) {\r\n        return ecrecover(hash, v, r, s) == signer;\r\n    }\r\n\r\n    function transfer(\r\n        address payable to,\r\n        uint256 amount,\r\n        bytes32 messageHash,\r\n        uint8 v, \r\n        bytes32 r, \r\n        bytes32 s\r\n    ) public {\r\n        require(verifySignature(messageHash, v, r, s), \"Invalid signature\");\r\n\r\n        to.transfer(amount);\r\n\r\n        emit Transfer(to, amount, messageHash);\r\n    }\r\n\r\n    function getBalance() public view returns (uint256) {\r\n        return address(this).balance;\r\n    }\r\n\r\n    // Function to receive Ether\r\n    receive() external payable {\r\n        emit Deposit(msg.sender, msg.value, address(this).balance);\r\n    }\r\n}\r\n",
  "sourcePath": "F:\\sc_project\\mpc_threshold_sig\\smart_contract\\contracts\\ThresholdSig.sol",
  "compiler": {
    "name": "solc",
    "version": "0.8.8+commit.dddeac2f.Emscripten.clang"
  },
  "schemaVersion": "3.4.15",
  "updatedAt": "2024-06-14T14:04:18.092Z",
  "networkType": "ethereum",
  "devdoc": {
    "kind": "dev",
    "methods": {},
    "version": 1
  },
  "userdoc": {
    "kind": "user",
    "methods": {},
    "version": 1
  }
}