{
  "contractName": "ThresholdSig",
  "abi": [
    {
      "inputs": [
        {
          "internalType": "address",
          "name": "_signer",
          "type": "address"
        }
      ],
      "stateMutability": "nonpayable",
      "type": "constructor"
    },
    {
      "inputs": [],
      "name": "signer",
      "outputs": [
        {
          "internalType": "address",
          "name": "",
          "type": "address"
        }
      ],
      "stateMutability": "view",
      "type": "function",
      "constant": true
    },
    {
      "stateMutability": "payable",
      "type": "receive",
      "payable": true
    },
    {
      "inputs": [
        {
          "internalType": "bytes32",
          "name": "hash",
          "type": "bytes32"
        },
        {
          "internalType": "uint8",
          "name": "v",
          "type": "uint8"
        },
        {
          "internalType": "bytes32",
          "name": "r",
          "type": "bytes32"
        },
        {
          "internalType": "bytes32",
          "name": "s",
          "type": "bytes32"
        }
      ],
      "name": "verifySignature",
      "outputs": [
        {
          "internalType": "bool",
          "name": "",
          "type": "bool"
        }
      ],
      "stateMutability": "view",
      "type": "function",
      "constant": true
    },
    {
      "inputs": [
        {
          "internalType": "address payable",
          "name": "to",
          "type": "address"
        },
        {
          "internalType": "uint256",
          "name": "amount",
          "type": "uint256"
        },
        {
          "internalType": "bytes32",
          "name": "messageHash",
          "type": "bytes32"
        },
        {
          "internalType": "uint8",
          "name": "v",
          "type": "uint8"
        },
        {
          "internalType": "bytes32",
          "name": "r",
          "type": "bytes32"
        },
        {
          "internalType": "bytes32",
          "name": "s",
          "type": "bytes32"
        }
      ],
      "name": "transfer",
      "outputs": [],
      "stateMutability": "nonpayable",
      "type": "function"
    },
    {
      "inputs": [],
      "name": "getBalance",
      "outputs": [
        {
          "internalType": "uint256",
          "name": "",
          "type": "uint256"
        }
      ],
      "stateMutability": "view",
      "type": "function",
      "constant": true
    }
  ],
  "bytecode": "0x608060405234801561001057600080fd5b50604051610740380380610740833981810160405281019061003291906100db565b806000806101000a81548173ffffffffffffffffffffffffffffffffffffffff021916908373ffffffffffffffffffffffffffffffffffffffff16021790555050610108565b600080fd5b600073ffffffffffffffffffffffffffffffffffffffff82169050919050565b60006100a88261007d565b9050919050565b6100b88161009d565b81146100c357600080fd5b50565b6000815190506100d5816100af565b92915050565b6000602082840312156100f1576100f0610078565b5b60006100ff848285016100c6565b91505092915050565b610629806101176000396000f3fe6080604052600436106100435760003560e01c806312065fe01461004f578063238ac9331461007a5780637cd4ff72146100a557806396957869146100ce5761004a565b3661004a57005b600080fd5b34801561005b57600080fd5b5061006461010b565b6040516100719190610294565b60405180910390f35b34801561008657600080fd5b5061008f610113565b60405161009c91906102f0565b60405180910390f35b3480156100b157600080fd5b506100cc60048036038101906100c791906103e9565b610137565b005b3480156100da57600080fd5b506100f560048036038101906100f09190610476565b6101d1565b60405161010291906104f8565b60405180910390f35b600047905090565b60008054906101000a900473ffffffffffffffffffffffffffffffffffffffff1681565b610143848484846101d1565b610182576040517f08c379a000000000000000000000000000000000000000000000000000000000815260040161017990610570565b60405180910390fd5b8573ffffffffffffffffffffffffffffffffffffffff166108fc869081150290604051600060405180830381858888f193505050501580156101c8573d6000803e3d6000fd5b50505050505050565b60008060009054906101000a900473ffffffffffffffffffffffffffffffffffffffff1673ffffffffffffffffffffffffffffffffffffffff166001868686866040516000815260200160405260405161022e94939291906105ae565b6020604051602081039080840390855afa158015610250573d6000803e3d6000fd5b5050506020604051035173ffffffffffffffffffffffffffffffffffffffff16149050949350505050565b6000819050919050565b61028e8161027b565b82525050565b60006020820190506102a96000830184610285565b92915050565b600073ffffffffffffffffffffffffffffffffffffffff82169050919050565b60006102da826102af565b9050919050565b6102ea816102cf565b82525050565b600060208201905061030560008301846102e1565b92915050565b600080fd5b600061031b826102af565b9050919050565b61032b81610310565b811461033657600080fd5b50565b60008135905061034881610322565b92915050565b6103578161027b565b811461036257600080fd5b50565b6000813590506103748161034e565b92915050565b6000819050919050565b61038d8161037a565b811461039857600080fd5b50565b6000813590506103aa81610384565b92915050565b600060ff82169050919050565b6103c6816103b0565b81146103d157600080fd5b50565b6000813590506103e3816103bd565b92915050565b60008060008060008060c087890312156104065761040561030b565b5b600061041489828a01610339565b965050602061042589828a01610365565b955050604061043689828a0161039b565b945050606061044789828a016103d4565b935050608061045889828a0161039b565b92505060a061046989828a0161039b565b9150509295509295509295565b600080600080608085870312156104905761048f61030b565b5b600061049e8782880161039b565b94505060206104af878288016103d4565b93505060406104c08782880161039b565b92505060606104d18782880161039b565b91505092959194509250565b60008115159050919050565b6104f2816104dd565b82525050565b600060208201905061050d60008301846104e9565b92915050565b600082825260208201905092915050565b7f496e76616c6964207369676e6174757265000000000000000000000000000000600082015250565b600061055a601183610513565b915061056582610524565b602082019050919050565b600060208201905081810360008301526105898161054d565b9050919050565b6105998161037a565b82525050565b6105a8816103b0565b82525050565b60006080820190506105c36000830187610590565b6105d0602083018661059f565b6105dd6040830185610590565b6105ea6060830184610590565b9594505050505056fea26469706673582212206038216716b7efcbfc4c0331f2f9314e03d40e2f6d71cdb810720feadb47c80c64736f6c63430008080033",
  "immutableReferences": {},
  "source": "// SPDX-License-Identifier: MIT\r\npragma solidity ^0.8.8;\r\n\r\ncontract ThresholdSig {\r\n    address public signer;\r\n\r\n    constructor(address _signer) {\r\n        signer = _signer;\r\n    }\r\n\r\n    function verifySignature(bytes32 hash, uint8 v, bytes32 r, bytes32 s) public view returns (bool) {\r\n        return ecrecover(hash, v, r, s) == signer;\r\n    }\r\n\r\n    function transfer(\r\n        address payable to,\r\n        uint256 amount,\r\n        bytes32 messageHash,\r\n        uint8 v,\r\n        bytes32 r,\r\n        bytes32 s\r\n    ) public {\r\n        require(verifySignature(messageHash, v, r, s), \"Invalid signature\");\r\n\r\n        to.transfer(amount);\r\n    }\r\n\r\n    function getBalance() public view returns (uint256) {\r\n        return address(this).balance;\r\n    }\r\n\r\n    // Function to receive Ether\r\n    receive() external payable {}\r\n}\r\n",
  "sourcePath": "F:\\sc_project\\threshold_signature\\smart_contract\\contracts\\ThresholdSig.sol",
  "compiler": {
    "name": "solc",
    "version": "0.8.8+commit.dddeac2f.Emscripten.clang"
  },
  "schemaVersion": "3.4.15",
  "updatedAt": "2024-06-03T16:03:13.835Z",
  "networkType": "ethereum",
  "devdoc": {
    "kind": "dev",
    "methods": {},
    "version": 1
  },
  "userdoc": {
    "kind": "user",
    "methods": {},
    "version": 1
  }
}